{
  "contractName": "OXOGame",
  "abi": [
    {
      "constant": false,
      "inputs": [
        {
          "name": "_x",
          "type": "uint256"
        },
        {
          "name": "_y",
          "type": "uint256"
        }
      ],
      "name": "move",
      "outputs": [
        {
          "name": "",
          "type": "bool"
        }
      ],
      "payable": false,
      "stateMutability": "nonpayable",
      "type": "function"
    },
    {
      "constant": false,
      "inputs": [],
      "name": "kill",
      "outputs": [],
      "payable": false,
      "stateMutability": "nonpayable",
      "type": "function"
    },
    {
      "constant": true,
      "inputs": [],
      "name": "nextMoveAddr",
      "outputs": [
        {
          "name": "",
          "type": "address"
        }
      ],
      "payable": false,
      "stateMutability": "view",
      "type": "function"
    },
    {
      "constant": false,
      "inputs": [],
      "name": "acceptGame",
      "outputs": [
        {
          "name": "success",
          "type": "bool"
        }
      ],
      "payable": true,
      "stateMutability": "payable",
      "type": "function"
    },
    {
      "constant": true,
      "inputs": [],
      "name": "ownerPlayer",
      "outputs": [
        {
          "name": "",
          "type": "address"
        }
      ],
      "payable": false,
      "stateMutability": "view",
      "type": "function"
    },
    {
      "constant": true,
      "inputs": [],
      "name": "betPrice",
      "outputs": [
        {
          "name": "",
          "type": "uint256"
        }
      ],
      "payable": false,
      "stateMutability": "view",
      "type": "function"
    },
    {
      "constant": true,
      "inputs": [],
      "name": "gameState",
      "outputs": [
        {
          "name": "",
          "type": "uint8"
        }
      ],
      "payable": false,
      "stateMutability": "view",
      "type": "function"
    },
    {
      "constant": true,
      "inputs": [],
      "name": "winner",
      "outputs": [
        {
          "name": "",
          "type": "uint8"
        }
      ],
      "payable": false,
      "stateMutability": "view",
      "type": "function"
    },
    {
      "constant": true,
      "inputs": [],
      "name": "guestPlayer",
      "outputs": [
        {
          "name": "",
          "type": "address"
        }
      ],
      "payable": false,
      "stateMutability": "view",
      "type": "function"
    },
    {
      "inputs": [],
      "payable": true,
      "stateMutability": "payable",
      "type": "constructor"
    },
    {
      "payable": true,
      "stateMutability": "payable",
      "type": "fallback"
    },
    {
      "anonymous": false,
      "inputs": [
        {
          "indexed": false,
          "name": "gameContractAddrPrefix",
          "type": "string"
        },
        {
          "indexed": false,
          "name": "gameContractAddr",
          "type": "address"
        },
        {
          "indexed": false,
          "name": "betInEthPrefix",
          "type": "string"
        },
        {
          "indexed": false,
          "name": "betInEth",
          "type": "uint256"
        }
      ],
      "name": "LogGameCreated",
      "type": "event"
    },
    {
      "anonymous": false,
      "inputs": [
        {
          "indexed": false,
          "name": "nextMoveForAddress",
          "type": "address"
        }
      ],
      "name": "LogNextMove",
      "type": "event"
    },
    {
      "anonymous": false,
      "inputs": [
        {
          "indexed": false,
          "name": "winnerAddr",
          "type": "address"
        },
        {
          "indexed": false,
          "name": "winnerPrize",
          "type": "uint256"
        }
      ],
      "name": "LogGameOverWithWinnerAndPrizePayed",
      "type": "event"
    },
    {
      "anonymous": false,
      "inputs": [
        {
          "indexed": false,
          "name": "noWinnerString",
          "type": "string"
        },
        {
          "indexed": false,
          "name": "paybackAmount",
          "type": "uint256"
        }
      ],
      "name": "LogGameOverWithNoWinnerAndPayback",
      "type": "event"
    }
  ],
  "bytecode": "0x606060405233600a60026101000a81548173ffffffffffffffffffffffffffffffffffffffff021916908373ffffffffffffffffffffffffffffffffffffffff16021790555034600d819055506000600a60006101000a81548160ff0219169083600281111561006b57fe5b02179055506003600a60016101000a81548160ff0219169083600381111561008f57fe5b02179055507ff6b44ad9f157dd3ea0a170390f3635e2be717ab1467345b6907863bc2a2d190a303460405180806020018473ffffffffffffffffffffffffffffffffffffffff1673ffffffffffffffffffffffffffffffffffffffff16815260200180602001848152602001838103835260168152602001807f47616d65436f6e747261637420616464726573733a20000000000000000000008152506020018381038252600b8152602001807f4265742070726963653a2000000000000000000000000000000000000000000081525060200194505050505060405180910390a16111ea806101806000396000f300606060405260043610610099576000357c0100000000000000000000000000000000000000000000000000000000900463ffffffff1680630867408f1461009b57806341c0e1b5146100df578063428176bf146100f45780636268e92114610149578063669d4aec1461016b578063cfd8a175146101c0578063d1f9c24d146101e9578063dfbf53ae14610220578063dfeada9414610257575b005b34156100a657600080fd5b6100c560048080359060200190919080359060200190919050506102ac565b604051808215151515815260200191505060405180910390f35b34156100ea57600080fd5b6100f26104dd565b005b34156100ff57600080fd5b610107610574565b604051808273ffffffffffffffffffffffffffffffffffffffff1673ffffffffffffffffffffffffffffffffffffffff16815260200191505060405180910390f35b61015161059a565b604051808215151515815260200191505060405180910390f35b341561017657600080fd5b61017e6106b8565b604051808273ffffffffffffffffffffffffffffffffffffffff1673ffffffffffffffffffffffffffffffffffffffff16815260200191505060405180910390f35b34156101cb57600080fd5b6101d36106de565b6040518082815260200191505060405180910390f35b34156101f457600080fd5b6101fc6106e4565b6040518082600281111561020c57fe5b60ff16815260200191505060405180910390f35b341561022b57600080fd5b6102336106f7565b6040518082600381111561024357fe5b60ff16815260200191505060405180910390f35b341561026257600080fd5b61026a61070a565b604051808273ffffffffffffffffffffffffffffffffffffffff1673ffffffffffffffffffffffffffffffffffffffff16815260200191505060405180910390f35b6000803373ffffffffffffffffffffffffffffffffffffffff16600c60009054906101000a900473ffffffffffffffffffffffffffffffffffffffff1673ffffffffffffffffffffffffffffffffffffffff1614151561030b57600080fd5b838360038210801561031d5750600381105b151561032857600080fd5b8585600060018360038110151561033b57fe5b600302018260038110151561034c57fe5b015414151561035a57600080fd5b60038081111561036657fe5b600a60019054906101000a900460ff16600381111561038157fe5b14151561039157600095506104d2565b6000808154809291906001019190505550600a60029054906101000a900473ffffffffffffffffffffffffffffffffffffffff1673ffffffffffffffffffffffffffffffffffffffff16600c60009054906101000a900473ffffffffffffffffffffffffffffffffffffffff1673ffffffffffffffffffffffffffffffffffffffff161461042057600a610423565b60015b60018960038110151561043257fe5b600302018860038110151561044357fe5b0181905550610450610730565b94506000600381111561045f57fe5b85600381111561046b57fe5b148061048d57506001600381111561047f57fe5b85600381111561048b57fe5b145b156104a45761049b856107d4565b600195506104d2565b6003800260005414156104c4576104bb60026107d4565b600195506104d2565b6104cc610827565b50600195505b505050505092915050565b3373ffffffffffffffffffffffffffffffffffffffff16600a60029054906101000a900473ffffffffffffffffffffffffffffffffffffffff1673ffffffffffffffffffffffffffffffffffffffff1614151561053957600080fd5b600a60029054906101000a900473ffffffffffffffffffffffffffffffffffffffff1673ffffffffffffffffffffffffffffffffffffffff16ff5b600c60009054906101000a900473ffffffffffffffffffffffffffffffffffffffff1681565b60003373ffffffffffffffffffffffffffffffffffffffff16600a60029054906101000a900473ffffffffffffffffffffffffffffffffffffffff1673ffffffffffffffffffffffffffffffffffffffff16141515156105f957600080fd5b600d54341015151561060a57600080fd5b6000600281111561061757fe5b600a60009054906101000a900460ff16600281111561063257fe5b14151561064257600090506106b5565b6001600a60006101000a81548160ff0219169083600281111561066157fe5b021790555033600b60006101000a81548173ffffffffffffffffffffffffffffffffffffffff021916908373ffffffffffffffffffffffffffffffffffffffff1602179055506106af610827565b50600190505b90565b600a60029054906101000a900473ffffffffffffffffffffffffffffffffffffffff1681565b600d5481565b600a60009054906101000a900460ff1681565b600a60019054906101000a900460ff1681565b600b60009054906101000a900473ffffffffffffffffffffffffffffffffffffffff1681565b60008060008061073e610b17565b925060038081111561074c57fe5b83600381111561075857fe5b141515610767578293506107ce565b61076f610bdf565b915060038081111561077d57fe5b82600381111561078957fe5b141515610798578193506107ce565b6107a0610ca7565b90506003808111156107ae57fe5b8160038111156107ba57fe5b1415156107c9578093506107ce565b600393505b50505090565b6002600a60006101000a81548160ff021916908360028111156107f357fe5b021790555080600a60016101000a81548160ff0219169083600381111561081657fe5b021790555061082481610df2565b50565b6000600a60029054906101000a900473ffffffffffffffffffffffffffffffffffffffff1673ffffffffffffffffffffffffffffffffffffffff16600c60009054906101000a900473ffffffffffffffffffffffffffffffffffffffff1673ffffffffffffffffffffffffffffffffffffffff16141561090957600b60009054906101000a900473ffffffffffffffffffffffffffffffffffffffff16600c60006101000a81548173ffffffffffffffffffffffffffffffffffffffff021916908373ffffffffffffffffffffffffffffffffffffffff160217905550610a8b565b600b60009054906101000a900473ffffffffffffffffffffffffffffffffffffffff1673ffffffffffffffffffffffffffffffffffffffff16600c60009054906101000a900473ffffffffffffffffffffffffffffffffffffffff1673ffffffffffffffffffffffffffffffffffffffff1614156109e957600a60029054906101000a900473ffffffffffffffffffffffffffffffffffffffff16600c60006101000a81548173ffffffffffffffffffffffffffffffffffffffff021916908373ffffffffffffffffffffffffffffffffffffffff160217905550610a8a565b60006002428115156109f757fe5b0614610a2557600b60009054906101000a900473ffffffffffffffffffffffffffffffffffffffff16610a49565b600a60029054906101000a900473ffffffffffffffffffffffffffffffffffffffff165b600c60006101000a81548173ffffffffffffffffffffffffffffffffffffffff021916908373ffffffffffffffffffffffffffffffffffffffff1602179055505b5b7f101f6ff2ee0237bdc4c9abb0ed26720882741bbb31fe53dc4ef8c4743dc9bda9600c60009054906101000a900473ffffffffffffffffffffffffffffffffffffffff16604051808273ffffffffffffffffffffffffffffffffffffffff1673ffffffffffffffffffffffffffffffffffffffff16815260200191505060405180910390a16001905090565b600080600080600080600094505b6003851015610bd257600092505b6003831015610b7257600185600381101515610b4b57fe5b6003020183600381101515610b5c57fe5b0154915081840193508280600101935050610b33565b610b7b8461118e565b905060006003811115610b8a57fe5b816003811115610b9657fe5b1480610bb8575060016003811115610baa57fe5b816003811115610bb657fe5b145b15610bc557809550610bd7565b8480600101955050610b25565b600395505b505050505090565b600080600080600080600094505b6003851015610c9a57600092505b6003831015610c3a57600183600381101515610c1357fe5b6003020185600381101515610c2457fe5b0154915081840193508280600101935050610bfb565b610c438461118e565b905060006003811115610c5257fe5b816003811115610c5e57fe5b1480610c80575060016003811115610c7257fe5b816003811115610c7e57fe5b145b15610c8d57809550610c9f565b8480600101955050610bed565b600395505b505050505090565b60008060008060008092505b6003831015610cf257600183600381101515610ccb57fe5b6003020183600381101515610cdc57fe5b0154915081840193508280600101935050610cb3565b610cfb8461118e565b905060006003811115610d0a57fe5b816003811115610d1657fe5b1480610d38575060016003811115610d2a57fe5b816003811115610d3657fe5b145b15610d4557809450610deb565b60009350600092505b6003831015610d9357600183600381101515610d6657fe5b6003020160018460030303600381101515610d7d57fe5b0154915081840193508280600101935050610d4e565b610d9c8461118e565b905060006003811115610dab57fe5b816003811115610db757fe5b1480610dd9575060016003811115610dcb57fe5b816003811115610dd757fe5b145b15610de657809450610deb565b600394505b5050505090565b6000803073ffffffffffffffffffffffffffffffffffffffff1631915060006003811115610e1c57fe5b836003811115610e2857fe5b1415610f2257600a60029054906101000a900473ffffffffffffffffffffffffffffffffffffffff1673ffffffffffffffffffffffffffffffffffffffff166108fc839081150290604051600060405180830381858888f193505050501515610e9057600080fd5b7f60db5a0b059dd28a69549ad4952873e651810208c517565dd1388b9f45e164ae600a60029054906101000a900473ffffffffffffffffffffffffffffffffffffffff1683604051808373ffffffffffffffffffffffffffffffffffffffff1673ffffffffffffffffffffffffffffffffffffffff1681526020018281526020019250505060405180910390a1611189565b60016003811115610f2f57fe5b836003811115610f3b57fe5b141561103557600b60009054906101000a900473ffffffffffffffffffffffffffffffffffffffff1673ffffffffffffffffffffffffffffffffffffffff166108fc839081150290604051600060405180830381858888f193505050501515610fa357600080fd5b7f60db5a0b059dd28a69549ad4952873e651810208c517565dd1388b9f45e164ae600b60009054906101000a900473ffffffffffffffffffffffffffffffffffffffff1683604051808373ffffffffffffffffffffffffffffffffffffffff1673ffffffffffffffffffffffffffffffffffffffff1681526020018281526020019250505060405180910390a1611188565b6002600a6009840281151561104657fe5b0481151561105057fe5b049050600a60029054906101000a900473ffffffffffffffffffffffffffffffffffffffff1673ffffffffffffffffffffffffffffffffffffffff166108fc829081150290604051600060405180830381858888f1935050505015156110b557600080fd5b600b60009054906101000a900473ffffffffffffffffffffffffffffffffffffffff1673ffffffffffffffffffffffffffffffffffffffff166108fc829081150290604051600060405180830381858888f19350505050151561111757600080fd5b7fb2d015c23791deb22873d54f8729eeb1d927da693a2f0714f6f6a6265e5a7f96816040518080602001838152602001828103825260098152602001807f447261772067616d6500000000000000000000000000000000000000000000008152506020019250505060405180910390a15b5b505050565b600060038214156111a257600090506111b9565b601e8214156111b457600190506111b9565b600390505b9190505600a165627a7a723058207fbad748fbe201ba4a76123191db162765bf8fc56a1954f8b2b580079ae83cc60029",
  "source": "pragma solidity ^0.4.17;\n\ncontract OXOGame {\n\n  //  TODO: uint -> byte\n\n// //  log only\n//   string constant ownerSymbol = \"X\";\n//   string constant guestSymbol = \"O\";\n\n  enum Winner {\n    owner, guest, draw, pending\n  }\n\n  enum GameState {\n    waitingTheOpponent,\n    playing,\n    finished\n  }\n\n  uint constant private ownerMoveValue = 1;\n  uint constant private guestMoveValue = 10;\n\n  uint constant private ownerWinSum = 3;\n  uint constant private guestWinSum = 30;\n\n  uint constant private cellInLineAmount = 3;\n  uint constant private movesTotal = cellInLineAmount * cellInLineAmount;\n  uint private movesPlaced;\n  uint[3][3] private field;\n\n  GameState public gameState;\n  Winner public winner;\n\n  address public ownerPlayer;\n  address public guestPlayer;\n  address public nextMoveAddr;\n\n  uint public betPrice;  //  in wei\n\n  //  EVENTS\n  event LogGameCreated(string gameContractAddrPrefix, address gameContractAddr, string betInEthPrefix, uint betInEth);\n  event LogNextMove(address nextMoveForAddress);\n  event LogGameOverWithWinnerAndPrizePayed(address winnerAddr, uint winnerPrize);\n  event LogGameOverWithNoWinnerAndPayback(string noWinnerString, uint paybackAmount);\n\n  // event LogValue(string pref, uint v);\n\n  //  MODIFIERS\n  modifier onlyOwner() {\n    require(ownerPlayer == msg.sender);\n    _;\n  }\n\n  modifier notOwner() {\n    require(ownerPlayer != msg.sender);\n    _;\n  }\n\n  modifier playerMoveIsNext() {\n    require(nextMoveAddr == msg.sender);\n    _;\n  }\n\n  modifier enoughEtherToAcceptGame() {\n    require(msg.value >= betPrice);\n    _;\n  }\n\n  modifier moveIndexesAreInBounds(uint _x, uint _y) {\n    require(_x < cellInLineAmount && _y < cellInLineAmount);\n    _;\n  }\n\n  modifier movePlaceIsVacant(uint _x, uint _y) {\n    require(field[_x][_y] == 0);\n    _;\n  }\n\n  function() public payable { }\n\n  function OXOGame() public payable {\n    ownerPlayer = msg.sender;\n    betPrice = msg.value;\n\n    gameState = GameState.waitingTheOpponent;\n    winner = Winner.pending;\n\n    LogGameCreated(\"GameContract address: \", this, \"Bet price: \", msg.value);\n  }\n\n  function acceptGame() public \n    notOwner \n    enoughEtherToAcceptGame\n    payable returns(bool success) {\n      if (gameState != GameState.waitingTheOpponent) {\n        return false;\n      }\n\n      gameState = GameState.playing;\n      guestPlayer = msg.sender;\n\n      updateNextMove();\n\n      success = true;\n  }\n\n  function move(uint _x, uint _y) public \n    playerMoveIsNext\n    moveIndexesAreInBounds(_x, _y)\n    movePlaceIsVacant(_x, _y) \n    returns (bool) {\n      //  game in progress\n      if (winner != Winner.pending) {\n        return false;\n      }\n\n      movesPlaced ++;\n\n      field[_x][_y] = (nextMoveAddr == ownerPlayer) ? ownerMoveValue : guestMoveValue;\n\n      Winner winnerAfterMove = findWinner();\n      if (winnerAfterMove == Winner.owner || winnerAfterMove == Winner.guest) {\n        gameOverWithWinner(winnerAfterMove);\n        return true;\n      }\n\n      if (movesPlaced == movesTotal) {\n        gameOverWithWinner(Winner.draw);\n        return true;\n      }\n\n      updateNextMove();\n\n      return true;\n  }\n\n//  PRIVATE FUCTIONS\nfunction updateNextMove() private returns (bool) {\n    if (nextMoveAddr == ownerPlayer) {\n      nextMoveAddr = guestPlayer;\n    } else if (nextMoveAddr == guestPlayer) {\n      nextMoveAddr = ownerPlayer;\n    } else {\n      nextMoveAddr = (block.timestamp % 2 == 0) ? ownerPlayer : guestPlayer;\n    }\n\n    LogNextMove(nextMoveAddr);\n\n    return true;\n  }\n\n  function gameOverWithWinner(Winner _winner) private {\n    gameState = GameState.finished;\n    winner = _winner;\n\n    sendPrizeToWinner(_winner);\n  }\n\n  function sendPrizeToWinner(Winner _winner) private {\n    uint prizeSum = this.balance;\n\n    if (_winner == Winner.owner) {\n      ownerPlayer.transfer(prizeSum);\n      LogGameOverWithWinnerAndPrizePayed(ownerPlayer, prizeSum);\n    } else if (_winner == Winner.guest) {\n      guestPlayer.transfer(prizeSum);\n      LogGameOverWithWinnerAndPrizePayed(guestPlayer, prizeSum);\n    } else {\n      //  1. leave 10% at contract\n      \n      //  2. send 90% to players\n      uint amountToPayForEachPlayer = prizeSum * 9 / 10 / 2;\n\n      ownerPlayer.transfer(amountToPayForEachPlayer);\n      guestPlayer.transfer(amountToPayForEachPlayer);\n      LogGameOverWithNoWinnerAndPayback(\"Draw game\", amountToPayForEachPlayer);\n    }\n  }\n\n  function kill() public \n    onlyOwner {\n      selfdestruct(ownerPlayer);\n    }\n\n//***************  find winner methods  ***************/\n  function winnerWithSum(uint _sum) private pure returns(Winner) {\n    //  owner win\n      if (_sum == ownerWinSum) {\n        return Winner.owner;\n      }\n      \n      //  guest win\n      if (_sum == guestWinSum) {\n        return Winner.guest;\n      }\n\n      return Winner.pending;\n  }\n\n  function horizontalWinner() private view returns(Winner) {\n    for (uint i = 0; i < cellInLineAmount; i++) {\n      uint lineSum;\n      \n      for (uint j = 0; j < cellInLineAmount; j++) {\n        uint moveValue = field[i][j];\n        lineSum += moveValue;\n      }\n\n      Winner lineWinner = winnerWithSum(lineSum);\n      if (lineWinner == Winner.owner || lineWinner == Winner.guest) {\n        return lineWinner;\n      }\n    }\n\n    return Winner.pending;\n  }\n  \n  function verticalWinner() private view returns(Winner) {\n    for (uint i = 0; i < cellInLineAmount; i++) {\n      uint lineSum;\n      \n      for (uint j = 0; j < cellInLineAmount; j++) {\n        uint moveValue = field[j][i];\n        lineSum += moveValue;\n      }\n\n      Winner lineWinner = winnerWithSum(lineSum);\n      if (lineWinner == Winner.owner || lineWinner == Winner.guest) {\n        return lineWinner;\n      }\n    }\n\n    return Winner.pending;\n  }\n\n  function crossWinner() private view returns(Winner) {\n    uint lineSum;\n\n    //  from left to down ↘︎\n    for (uint i = 0; i < cellInLineAmount; i ++) {\n      uint moveValue = field[i][i];\n      lineSum += moveValue;\n    }\n    \n    Winner lineWinner = winnerWithSum(lineSum);\n    if (lineWinner == Winner.owner || lineWinner == Winner.guest) {\n      return lineWinner;\n    }\n\n    //  from left to up ↗︎\n    lineSum = 0;\n    for (i = 0; i < cellInLineAmount; i ++) {\n      moveValue = field[i][cellInLineAmount - i - 1];\n      lineSum += moveValue;\n    }\n    \n    lineWinner = winnerWithSum(lineSum);\n    if (lineWinner == Winner.owner || lineWinner == Winner.guest) {\n      return lineWinner;\n    }\n    \n    return Winner.pending;\n  }\n\n  function findWinner() private view returns (Winner) {\n    Winner horizontalWin = horizontalWinner();\n    if (horizontalWin != Winner.pending) {\n      return horizontalWin;\n    }\n\n    Winner verticalWin = verticalWinner();\n    if (verticalWin != Winner.pending) {\n      return verticalWin;\n    }\n\n    Winner crossWin = crossWinner();\n    if (crossWin != Winner.pending) {\n      return crossWin;\n    }\n\n    return Winner.pending;\n  }\n/****************  find winner methods  ***************/\n  \n}\n",
  "sourcePath": "/Users/vanijatko/Documents/projects/study/ethereum/Ambisafe/oxo_blockchain/contracts/OXOGame.sol",
  "compiler": {
    "name": "solc",
    "version": "0.4.18+commit.9cf6e910.Emscripten.clang"
  },
  "schemaVersion": "1.0.1",
  "updatedAt": "2017-11-15T15:54:55.517Z"
}